{
  "contractName": "EstateAgent",
  "abi": [
    {
      "inputs": [
        {
          "internalType": "uint256",
          "name": "currentLimit",
          "type": "uint256"
        },
        {
          "internalType": "uint256",
          "name": "basePrice",
          "type": "uint256"
        }
      ],
      "stateMutability": "nonpayable",
      "type": "constructor"
    },
    {
      "anonymous": false,
      "inputs": [
        {
          "indexed": false,
          "internalType": "address",
          "name": "newAdmin",
          "type": "address"
        }
      ],
      "name": "AddAdmin",
      "type": "event"
    },
    {
      "anonymous": false,
      "inputs": [
        {
          "indexed": false,
          "internalType": "address",
          "name": "buyer",
          "type": "address"
        },
        {
          "indexed": false,
          "internalType": "uint256",
          "name": "price",
          "type": "uint256"
        },
        {
          "indexed": false,
          "internalType": "uint256",
          "name": "tokenId",
          "type": "uint256"
        }
      ],
      "name": "BuyToken",
      "type": "event"
    },
    {
      "anonymous": false,
      "inputs": [
        {
          "indexed": false,
          "internalType": "address",
          "name": "sender",
          "type": "address"
        },
        {
          "indexed": false,
          "internalType": "uint256",
          "name": "value",
          "type": "uint256"
        }
      ],
      "name": "Received",
      "type": "event"
    },
    {
      "anonymous": false,
      "inputs": [
        {
          "indexed": false,
          "internalType": "address",
          "name": "oldAdmin",
          "type": "address"
        }
      ],
      "name": "RemoveAdmin",
      "type": "event"
    },
    {
      "anonymous": false,
      "inputs": [
        {
          "indexed": false,
          "internalType": "address",
          "name": "seller",
          "type": "address"
        },
        {
          "indexed": false,
          "internalType": "uint256",
          "name": "price",
          "type": "uint256"
        },
        {
          "indexed": false,
          "internalType": "uint256",
          "name": "tokenId",
          "type": "uint256"
        }
      ],
      "name": "SellToken",
      "type": "event"
    },
    {
      "anonymous": false,
      "inputs": [
        {
          "indexed": false,
          "internalType": "uint256",
          "name": "limit",
          "type": "uint256"
        }
      ],
      "name": "SetLimit",
      "type": "event"
    },
    {
      "anonymous": false,
      "inputs": [
        {
          "indexed": false,
          "internalType": "contract DecentramallToken",
          "name": "newContract",
          "type": "address"
        }
      ],
      "name": "SetToken",
      "type": "event"
    },
    {
      "anonymous": false,
      "inputs": [
        {
          "indexed": false,
          "internalType": "address",
          "name": "token",
          "type": "address"
        }
      ],
      "name": "TokenCreated",
      "type": "event"
    },
    {
      "anonymous": false,
      "inputs": [
        {
          "indexed": false,
          "internalType": "address",
          "name": "to",
          "type": "address"
        },
        {
          "indexed": false,
          "internalType": "uint256",
          "name": "amount",
          "type": "uint256"
        }
      ],
      "name": "Withdraw",
      "type": "event"
    },
    {
      "inputs": [
        {
          "internalType": "address",
          "name": "newAdmin",
          "type": "address"
        }
      ],
      "name": "addAdmin",
      "outputs": [],
      "stateMutability": "nonpayable",
      "type": "function"
    },
    {
      "inputs": [
        {
          "internalType": "address",
          "name": "",
          "type": "address"
        }
      ],
      "name": "adminByAddress",
      "outputs": [
        {
          "internalType": "bool",
          "name": "",
          "type": "bool"
        }
      ],
      "stateMutability": "view",
      "type": "function",
      "constant": true
    },
    {
      "inputs": [
        {
          "internalType": "address",
          "name": "oldAdmin",
          "type": "address"
        }
      ],
      "name": "removeAdmin",
      "outputs": [],
      "stateMutability": "nonpayable",
      "type": "function"
    },
    {
      "inputs": [],
      "name": "token",
      "outputs": [
        {
          "internalType": "contract DecentramallToken",
          "name": "",
          "type": "address"
        }
      ],
      "stateMutability": "view",
      "type": "function",
      "constant": true
    },
    {
      "inputs": [
        {
          "internalType": "address",
          "name": "admin",
          "type": "address"
        }
      ],
      "name": "verifyAdmin",
      "outputs": [
        {
          "internalType": "bool",
          "name": "",
          "type": "bool"
        }
      ],
      "stateMutability": "view",
      "type": "function",
      "constant": true
    },
    {
      "stateMutability": "payable",
      "type": "receive",
      "payable": true
    },
    {
      "inputs": [
        {
          "internalType": "address payable",
          "name": "to",
          "type": "address"
        },
        {
          "internalType": "uint256",
          "name": "amount",
          "type": "uint256"
        }
      ],
      "name": "withdraw",
      "outputs": [],
      "stateMutability": "nonpayable",
      "type": "function"
    },
    {
      "inputs": [
        {
          "internalType": "contract DecentramallToken",
          "name": "_newContract",
          "type": "address"
        }
      ],
      "name": "setToken",
      "outputs": [],
      "stateMutability": "nonpayable",
      "type": "function"
    },
    {
      "inputs": [
        {
          "internalType": "uint256",
          "name": "limit",
          "type": "uint256"
        }
      ],
      "name": "setLimit",
      "outputs": [],
      "stateMutability": "nonpayable",
      "type": "function"
    },
    {
      "inputs": [
        {
          "internalType": "uint256",
          "name": "x",
          "type": "uint256"
        }
      ],
      "name": "price",
      "outputs": [
        {
          "internalType": "uint256",
          "name": "",
          "type": "uint256"
        }
      ],
      "stateMutability": "view",
      "type": "function",
      "constant": true
    },
    {
      "inputs": [],
      "name": "buy",
      "outputs": [],
      "stateMutability": "payable",
      "type": "function",
      "payable": true
    },
    {
      "inputs": [
        {
          "internalType": "uint256",
          "name": "tokenId",
          "type": "uint256"
        }
      ],
      "name": "sell",
      "outputs": [],
      "stateMutability": "nonpayable",
      "type": "function"
    },
    {
      "inputs": [],
      "name": "limit",
      "outputs": [
        {
          "internalType": "uint256",
          "name": "",
          "type": "uint256"
        }
      ],
      "stateMutability": "view",
      "type": "function",
      "constant": true
    },
    {
      "inputs": [],
      "name": "balance",
      "outputs": [
        {
          "internalType": "uint256",
          "name": "",
          "type": "uint256"
        }
      ],
      "stateMutability": "view",
      "type": "function",
      "constant": true
    }
  ],
  "bytecode": "0x608060405234801561001057600080fd5b5060405162004cd438038062004cd48339818101604052604081101561003557600080fd5b81019080805190602001909291908051906020019092919050505060016000803373ffffffffffffffffffffffffffffffffffffffff1673ffffffffffffffffffffffffffffffffffffffff16815260200190815260200160002060006101000a81548160ff0219169083151502179055507fad6de4452a631e641cb59902236607946ce9272b9b981f2f80e8d129cb9084ba33604051808273ffffffffffffffffffffffffffffffffffffffff1673ffffffffffffffffffffffffffffffffffffffff16815260200191505060405180910390a13060405161011790610244565b808273ffffffffffffffffffffffffffffffffffffffff1673ffffffffffffffffffffffffffffffffffffffff168152602001915050604051809103906000f080158015610169573d6000803e3d6000fd5b50600360006101000a81548173ffffffffffffffffffffffffffffffffffffffff021916908373ffffffffffffffffffffffffffffffffffffffff16021790555081600181905550806002819055507f2e2b3f61b70d2d131b2a807371103cc98d51adcaa5e9a8f9c32658ad8426e74e600360009054906101000a900473ffffffffffffffffffffffffffffffffffffffff16604051808273ffffffffffffffffffffffffffffffffffffffff1673ffffffffffffffffffffffffffffffffffffffff16815260200191505060405180910390a15050610252565b61334b806200198983390190565b61172780620002626000396000f3fe6080604052600436106100c65760003560e01c8063704802751161007f578063b69ef8a811610059578063b69ef8a8146103c1578063e4849b32146103ec578063f3fef3a314610427578063fc0c546a1461048257610138565b8063704802751461033b578063a4d66daf1461038c578063a6f2ae3a146103b757610138565b806303f9f2141461013d578063144fa6d7146101a65780631785f53c146101f757806326a49e371461024857806327ea6f2b14610297578063390b4f7e146102d257610138565b36610138577f88a5966d370b9919b20f3e2c13ff65706f196a4e32cc2c12bf57088f885258743334604051808373ffffffffffffffffffffffffffffffffffffffff1673ffffffffffffffffffffffffffffffffffffffff1681526020018281526020019250505060405180910390a1005b600080fd5b34801561014957600080fd5b5061018c6004803603602081101561016057600080fd5b81019080803573ffffffffffffffffffffffffffffffffffffffff1690602001909291905050506104d9565b604051808215151515815260200191505060405180910390f35b3480156101b257600080fd5b506101f5600480360360208110156101c957600080fd5b81019080803573ffffffffffffffffffffffffffffffffffffffff1690602001909291905050506104f9565b005b34801561020357600080fd5b506102466004803603602081101561021a57600080fd5b81019080803573ffffffffffffffffffffffffffffffffffffffff169060200190929190505050610665565b005b34801561025457600080fd5b506102816004803603602081101561026b57600080fd5b81019080803590602001909291905050506107e7565b6040518082815260200191505060405180910390f35b3480156102a357600080fd5b506102d0600480360360208110156102ba57600080fd5b81019080803590602001909291905050506107f8565b005b3480156102de57600080fd5b50610321600480360360208110156102f557600080fd5b81019080803573ffffffffffffffffffffffffffffffffffffffff1690602001909291905050506108fe565b604051808215151515815260200191505060405180910390f35b34801561034757600080fd5b5061038a6004803603602081101561035e57600080fd5b81019080803573ffffffffffffffffffffffffffffffffffffffff169060200190929190505050610953565b005b34801561039857600080fd5b506103a1610ad5565b6040518082815260200191505060405180910390f35b6103bf610adf565b005b3480156103cd57600080fd5b506103d6610f80565b6040518082815260200191505060405180910390f35b3480156103f857600080fd5b506104256004803603602081101561040f57600080fd5b8101908080359060200190929190505050610fa4565b005b34801561043357600080fd5b506104806004803603604081101561044a57600080fd5b81019080803573ffffffffffffffffffffffffffffffffffffffff1690602001909291908035906020019092919050505061147c565b005b34801561048e57600080fd5b50610497611686565b604051808273ffffffffffffffffffffffffffffffffffffffff1673ffffffffffffffffffffffffffffffffffffffff16815260200191505060405180910390f35b60006020528060005260406000206000915054906101000a900460ff1681565b600115156000803373ffffffffffffffffffffffffffffffffffffffff1673ffffffffffffffffffffffffffffffffffffffff16815260200190815260200160002060009054906101000a900460ff161515146105be576040517f08c379a000000000000000000000000000000000000000000000000000000000815260040180806020018281038252600d8152602001807f4e6f7420616e2061646d696e210000000000000000000000000000000000000081525060200191505060405180910390fd5b80600360006101000a81548173ffffffffffffffffffffffffffffffffffffffff021916908373ffffffffffffffffffffffffffffffffffffffff1602179055507fefc1fd16ea80a922086ee4e995739d59b025c1bcea6d1f67855747480c83214b81604051808273ffffffffffffffffffffffffffffffffffffffff1673ffffffffffffffffffffffffffffffffffffffff16815260200191505060405180910390a150565b600115156000803373ffffffffffffffffffffffffffffffffffffffff1673ffffffffffffffffffffffffffffffffffffffff16815260200190815260200160002060009054906101000a900460ff1615151461072a576040517f08c379a000000000000000000000000000000000000000000000000000000000815260040180806020018281038252600d8152602001807f4e6f7420616e2061646d696e210000000000000000000000000000000000000081525060200191505060405180910390fd5b60008060008373ffffffffffffffffffffffffffffffffffffffff1673ffffffffffffffffffffffffffffffffffffffff16815260200190815260200160002060006101000a81548160ff0219169083151502179055507f753f40ca3312b2408759a67875b367955e7baa221daf08aa3d643d96202ac12b81604051808273ffffffffffffffffffffffffffffffffffffffff1673ffffffffffffffffffffffffffffffffffffffff16815260200191505060405180910390a150565b60006002546002830a019050919050565b600115156000803373ffffffffffffffffffffffffffffffffffffffff1673ffffffffffffffffffffffffffffffffffffffff16815260200190815260200160002060009054906101000a900460ff161515146108bd576040517f08c379a000000000000000000000000000000000000000000000000000000000815260040180806020018281038252600d8152602001807f4e6f7420616e2061646d696e210000000000000000000000000000000000000081525060200191505060405180910390fd5b806001819055507f479881bf41e329f328c21c2cbb11514b05a021cd33ea4e5a576ea6bc03874fd6816040518082815260200191505060405180910390a150565b60008060008373ffffffffffffffffffffffffffffffffffffffff1673ffffffffffffffffffffffffffffffffffffffff16815260200190815260200160002060009054906101000a900460ff169050919050565b600115156000803373ffffffffffffffffffffffffffffffffffffffff1673ffffffffffffffffffffffffffffffffffffffff16815260200190815260200160002060009054906101000a900460ff16151514610a18576040517f08c379a000000000000000000000000000000000000000000000000000000000815260040180806020018281038252600d8152602001807f4e6f7420616e2061646d696e210000000000000000000000000000000000000081525060200191505060405180910390fd5b60016000808373ffffffffffffffffffffffffffffffffffffffff1673ffffffffffffffffffffffffffffffffffffffff16815260200190815260200160002060006101000a81548160ff0219169083151502179055507fad6de4452a631e641cb59902236607946ce9272b9b981f2f80e8d129cb9084ba81604051808273ffffffffffffffffffffffffffffffffffffffff1673ffffffffffffffffffffffffffffffffffffffff16815260200191505060405180910390a150565b6000600154905090565b600154600360009054906101000a900473ffffffffffffffffffffffffffffffffffffffff1673ffffffffffffffffffffffffffffffffffffffff166318160ddd6040518163ffffffff1660e01b815260040160206040518083038186803b158015610b4a57600080fd5b505afa158015610b5e573d6000803e3d6000fd5b505050506040513d6020811015610b7457600080fd5b810190808051906020019092919050505010610bf8576040517f08c379a00000000000000000000000000000000000000000000000000000000081526004018080602001828103825260138152602001807f4d617820737570706c792072656163686564210000000000000000000000000081525060200191505060405180910390fd5b6000600360009054906101000a900473ffffffffffffffffffffffffffffffffffffffff1673ffffffffffffffffffffffffffffffffffffffff166318160ddd6040518163ffffffff1660e01b815260040160206040518083038186803b158015610c6257600080fd5b505afa158015610c76573d6000803e3d6000fd5b505050506040513d6020811015610c8c57600080fd5b810190808051906020019092919050505090506000610cad600183016107e7565b905066038d7ea4c680008102341015610d11576040517f08c379a00000000000000000000000000000000000000000000000000000000081526004018080602001828103825260238152602001806116ad6023913960400191505060405180910390fd5b6000600360009054906101000a900473ffffffffffffffffffffffffffffffffffffffff1673ffffffffffffffffffffffffffffffffffffffff16636a627842336040518263ffffffff1660e01b8152600401808273ffffffffffffffffffffffffffffffffffffffff1673ffffffffffffffffffffffffffffffffffffffff168152602001915050602060405180830381600087803b158015610db457600080fd5b505af1158015610dc8573d6000803e3d6000fd5b505050506040513d6020811015610dde57600080fd5b8101908080519060200190929190505050905082600360009054906101000a900473ffffffffffffffffffffffffffffffffffffffff1673ffffffffffffffffffffffffffffffffffffffff166318160ddd6040518163ffffffff1660e01b815260040160206040518083038186803b158015610e5a57600080fd5b505afa158015610e6e573d6000803e3d6000fd5b505050506040513d6020811015610e8457600080fd5b810190808051906020019092919050505011610f08576040517f08c379a00000000000000000000000000000000000000000000000000000000081526004018080602001828103825260138152602001807f546f6b656e20646964206e6f74206d696e74210000000000000000000000000081525060200191505060405180910390fd5b7ff6f342132c7de5e5a1e99c8efae544c94731f3ff093f5c3c97c6973d9415cdfb338383604051808473ffffffffffffffffffffffffffffffffffffffff1673ffffffffffffffffffffffffffffffffffffffff168152602001838152602001828152602001935050505060405180910390a1505050565b6000803090508073ffffffffffffffffffffffffffffffffffffffff163191505090565b60011515600360009054906101000a900473ffffffffffffffffffffffffffffffffffffffff1673ffffffffffffffffffffffffffffffffffffffff166320d9049f33846040518363ffffffff1660e01b8152600401808373ffffffffffffffffffffffffffffffffffffffff1673ffffffffffffffffffffffffffffffffffffffff1681526020018281526020019250505060206040518083038186803b15801561104f57600080fd5b505afa158015611063573d6000803e3d6000fd5b505050506040513d602081101561107957600080fd5b81019080805190602001909291905050501515146110ff576040517f08c379a000000000000000000000000000000000000000000000000000000000815260040180806020018281038252600b8152602001807f46616b6520746f6b656e2100000000000000000000000000000000000000000081525060200191505060405180910390fd5b6000600360009054906101000a900473ffffffffffffffffffffffffffffffffffffffff1673ffffffffffffffffffffffffffffffffffffffff166318160ddd6040518163ffffffff1660e01b815260040160206040518083038186803b15801561116957600080fd5b505afa15801561117d573d6000803e3d6000fd5b505050506040513d602081101561119357600080fd5b8101908080519060200190929190505050905060006111b1826107e7565b90506111bb610f80565b811115611213576040517f08c379a00000000000000000000000000000000000000000000000000000000081526004018080602001828103825260228152602001806116d06022913960400191505060405180910390fd5b600360009054906101000a900473ffffffffffffffffffffffffffffffffffffffff1673ffffffffffffffffffffffffffffffffffffffff166342966c68846040518263ffffffff1660e01b815260040180828152602001915050600060405180830381600087803b15801561128857600080fd5b505af115801561129c573d6000803e3d6000fd5b5050505081600360009054906101000a900473ffffffffffffffffffffffffffffffffffffffff1673ffffffffffffffffffffffffffffffffffffffff166318160ddd6040518163ffffffff1660e01b815260040160206040518083038186803b15801561130957600080fd5b505afa15801561131d573d6000803e3d6000fd5b505050506040513d602081101561133357600080fd5b8101908080519060200190929190505050106113b7576040517f08c379a00000000000000000000000000000000000000000000000000000000081526004018080602001828103825260128152602001807f546f6b656e20646964206e6f74206275726e000000000000000000000000000081525060200191505060405180910390fd5b60003390508073ffffffffffffffffffffffffffffffffffffffff166108fc839081150290604051600060405180830381858888f19350505050158015611402573d6000803e3d6000fd5b507fa8ff15eb642b39da3ab82bb74a87b76cc3e1aef2b82b70bc2a35458386db29aa338386604051808473ffffffffffffffffffffffffffffffffffffffff1673ffffffffffffffffffffffffffffffffffffffff168152602001838152602001828152602001935050505060405180910390a150505050565b600115156000803373ffffffffffffffffffffffffffffffffffffffff1673ffffffffffffffffffffffffffffffffffffffff16815260200190815260200160002060009054906101000a900460ff16151514611541576040517f08c379a000000000000000000000000000000000000000000000000000000000815260040180806020018281038252600d8152602001807f4e6f7420616e2061646d696e210000000000000000000000000000000000000081525060200191505060405180910390fd5b600061154b610f80565b11801561155e575061155b610f80565b81105b6115d0576040517f08c379a000000000000000000000000000000000000000000000000000000000815260040180806020018281038252600a8152602001807f496d706f737369626c650000000000000000000000000000000000000000000081525060200191505060405180910390fd5b8173ffffffffffffffffffffffffffffffffffffffff166108fc829081150290604051600060405180830381858888f19350505050158015611616573d6000803e3d6000fd5b507f884edad9ce6fa2440d8a54cc123490eb96d2768479d49ff9c7366125a94243648282604051808373ffffffffffffffffffffffffffffffffffffffff1673ffffffffffffffffffffffffffffffffffffffff1681526020018281526020019250505060405180910390a15050565b600360009054906101000a900473ffffffffffffffffffffffffffffffffffffffff168156fe4e6f7420656e6f7567682066756e647320746f20707572636861736520746f6b656e2150726963652063616e277420626520686967686572207468616e2062616c616e6365a2646970667358221220813813015220fd0d7e7be344d573da8544c9b21bc922454d20e9f60741fb989864736f6c6343000608003360806040523480156200001157600080fd5b506040516200334b3803806200334b833981810160405260208110156200003757600080fd5b81019080805190602001909291905050506040518060400160405280601881526020017f446563656e7472616d616c6c20537061636520546f6b656e00000000000000008152506040518060400160405280600581526020017f5350414345000000000000000000000000000000000000000000000000000000815250620000cc6301ffc9a760e01b6200019060201b60201c565b8160069080519060200190620000e492919062000299565b508060079080519060200190620000fd92919062000299565b50620001166380ac58cd60e01b6200019060201b60201c565b6200012e635b5e139f60e01b6200019060201b60201c565b6200014663780e9d6360e01b6200019060201b60201c565b505080600a60006101000a81548173ffffffffffffffffffffffffffffffffffffffff021916908373ffffffffffffffffffffffffffffffffffffffff1602179055505062000348565b63ffffffff60e01b817bffffffffffffffffffffffffffffffffffffffffffffffffffffffff191614156200022d576040517f08c379a000000000000000000000000000000000000000000000000000000000815260040180806020018281038252601c8152602001807f4552433136353a20696e76616c696420696e746572666163652069640000000081525060200191505060405180910390fd5b6001600080837bffffffffffffffffffffffffffffffffffffffffffffffffffffffff19167bffffffffffffffffffffffffffffffffffffffffffffffffffffffff1916815260200190815260200160002060006101000a81548160ff02191690831515021790555050565b828054600181600116156101000203166002900490600052602060002090601f016020900481019282601f10620002dc57805160ff19168380011785556200030d565b828001600101855582156200030d579182015b828111156200030c578251825591602001919060010190620002ef565b5b5090506200031c919062000320565b5090565b6200034591905b808211156200034157600081600090555060010162000327565b5090565b90565b612ff380620003586000396000f3fe608060405234801561001057600080fd5b506004361061012c5760003560e01c80634f6ccce7116100ad57806395d89b411161007157806395d89b41146106a8578063a22cb4651461072b578063b88d4fde1461077b578063c87b56dd14610880578063e985e9c5146109275761012c565b80634f6ccce7146104c55780636352211e146105075780636a627842146105755780636c0360eb146105cd57806370a08231146106505761012c565b806320d9049f116100f457806320d9049f146102f357806323b872dd146103595780632f745c59146103c757806342842e0e1461042957806342966c68146104975761012c565b806301ffc9a71461013157806306fdde0314610196578063081812fc14610219578063095ea7b31461028757806318160ddd146102d5575b600080fd5b61017c6004803603602081101561014757600080fd5b8101908080357bffffffffffffffffffffffffffffffffffffffffffffffffffffffff191690602001909291905050506109a3565b604051808215151515815260200191505060405180910390f35b61019e610a0a565b6040518080602001828103825283818151815260200191508051906020019080838360005b838110156101de5780820151818401526020810190506101c3565b50505050905090810190601f16801561020b5780820380516001836020036101000a031916815260200191505b509250505060405180910390f35b6102456004803603602081101561022f57600080fd5b8101908080359060200190929190505050610aac565b604051808273ffffffffffffffffffffffffffffffffffffffff1673ffffffffffffffffffffffffffffffffffffffff16815260200191505060405180910390f35b6102d36004803603604081101561029d57600080fd5b81019080803573ffffffffffffffffffffffffffffffffffffffff16906020019092919080359060200190929190505050610b47565b005b6102dd610c8b565b6040518082815260200191505060405180910390f35b61033f6004803603604081101561030957600080fd5b81019080803573ffffffffffffffffffffffffffffffffffffffff16906020019092919080359060200190929190505050610c9c565b604051808215151515815260200191505060405180910390f35b6103c56004803603606081101561036f57600080fd5b81019080803573ffffffffffffffffffffffffffffffffffffffff169060200190929190803573ffffffffffffffffffffffffffffffffffffffff16906020019092919080359060200190929190505050610cee565b005b610413600480360360408110156103dd57600080fd5b81019080803573ffffffffffffffffffffffffffffffffffffffff16906020019092919080359060200190929190505050610d64565b6040518082815260200191505060405180910390f35b6104956004803603606081101561043f57600080fd5b81019080803573ffffffffffffffffffffffffffffffffffffffff169060200190929190803573ffffffffffffffffffffffffffffffffffffffff16906020019092919080359060200190929190505050610dbf565b005b6104c3600480360360208110156104ad57600080fd5b8101908080359060200190929190505050610ddf565b005b6104f1600480360360208110156104db57600080fd5b8101908080359060200190929190505050610eae565b6040518082815260200191505060405180910390f35b6105336004803603602081101561051d57600080fd5b8101908080359060200190929190505050610ed1565b604051808273ffffffffffffffffffffffffffffffffffffffff1673ffffffffffffffffffffffffffffffffffffffff16815260200191505060405180910390f35b6105b76004803603602081101561058b57600080fd5b81019080803573ffffffffffffffffffffffffffffffffffffffff169060200190929190505050610f08565b6040518082815260200191505060405180910390f35b6105d561104d565b6040518080602001828103825283818151815260200191508051906020019080838360005b838110156106155780820151818401526020810190506105fa565b50505050905090810190601f1680156106425780820380516001836020036101000a031916815260200191505b509250505060405180910390f35b6106926004803603602081101561066657600080fd5b81019080803573ffffffffffffffffffffffffffffffffffffffff1690602001909291905050506110ef565b6040518082815260200191505060405180910390f35b6106b06111c4565b6040518080602001828103825283818151815260200191508051906020019080838360005b838110156106f05780820151818401526020810190506106d5565b50505050905090810190601f16801561071d5780820380516001836020036101000a031916815260200191505b509250505060405180910390f35b6107796004803603604081101561074157600080fd5b81019080803573ffffffffffffffffffffffffffffffffffffffff169060200190929190803515159060200190929190505050611266565b005b61087e6004803603608081101561079157600080fd5b81019080803573ffffffffffffffffffffffffffffffffffffffff169060200190929190803573ffffffffffffffffffffffffffffffffffffffff16906020019092919080359060200190929190803590602001906401000000008111156107f857600080fd5b82018360208201111561080a57600080fd5b8035906020019184600183028401116401000000008311171561082c57600080fd5b91908080601f016020809104026020016040519081016040528093929190818152602001838380828437600081840152601f19601f82011690508083019250505050505050919291929050505061141e565b005b6108ac6004803603602081101561089657600080fd5b8101908080359060200190929190505050611496565b6040518080602001828103825283818151815260200191508051906020019080838360005b838110156108ec5780820151818401526020810190506108d1565b50505050905090810190601f1680156109195780820380516001836020036101000a031916815260200191505b509250505060405180910390f35b6109896004803603604081101561093d57600080fd5b81019080803573ffffffffffffffffffffffffffffffffffffffff169060200190929190803573ffffffffffffffffffffffffffffffffffffffff16906020019092919050505061177f565b604051808215151515815260200191505060405180910390f35b6000806000837bffffffffffffffffffffffffffffffffffffffffffffffffffffffff19167bffffffffffffffffffffffffffffffffffffffffffffffffffffffff1916815260200190815260200160002060009054906101000a900460ff169050919050565b606060068054600181600116156101000203166002900480601f016020809104026020016040519081016040528092919081815260200182805460018160011615610100020316600290048015610aa25780601f10610a7757610100808354040283529160200191610aa2565b820191906000526020600020905b815481529060010190602001808311610a8557829003601f168201915b5050505050905090565b6000610ab782611813565b610b0c576040517f08c379a000000000000000000000000000000000000000000000000000000000815260040180806020018281038252602c815260200180612ee8602c913960400191505060405180910390fd5b6004600083815260200190815260200160002060009054906101000a900473ffffffffffffffffffffffffffffffffffffffff169050919050565b6000610b5282610ed1565b90508073ffffffffffffffffffffffffffffffffffffffff168373ffffffffffffffffffffffffffffffffffffffff161415610bd9576040517f08c379a0000000000000000000000000000000000000000000000000000000008152600401808060200182810382526021815260200180612f6c6021913960400191505060405180910390fd5b8073ffffffffffffffffffffffffffffffffffffffff16610bf8611830565b73ffffffffffffffffffffffffffffffffffffffff161480610c275750610c2681610c21611830565b61177f565b5b610c7c576040517f08c379a0000000000000000000000000000000000000000000000000000000008152600401808060200182810382526038815260200180612e3b6038913960400191505060405180910390fd5b610c868383611838565b505050565b6000610c9760026118f1565b905090565b6000610ca782611813565b8015610ce657508273ffffffffffffffffffffffffffffffffffffffff16610cce83610ed1565b73ffffffffffffffffffffffffffffffffffffffff16145b905092915050565b610cff610cf9611830565b82611906565b610d54576040517f08c379a0000000000000000000000000000000000000000000000000000000008152600401808060200182810382526031815260200180612f8d6031913960400191505060405180910390fd5b610d5f8383836119fa565b505050565b6000610db782600160008673ffffffffffffffffffffffffffffffffffffffff1673ffffffffffffffffffffffffffffffffffffffff168152602001908152602001600020611c3d90919063ffffffff16565b905092915050565b610dda8383836040518060200160405280600081525061141e565b505050565b600a60009054906101000a900473ffffffffffffffffffffffffffffffffffffffff1673ffffffffffffffffffffffffffffffffffffffff163373ffffffffffffffffffffffffffffffffffffffff1614610ea2576040517f08c379a000000000000000000000000000000000000000000000000000000000815260040180806020018281038252600d8152602001807f4e6f7420616e206167656e74210000000000000000000000000000000000000081525060200191505060405180910390fd5b610eab81611c57565b50565b600080610ec5836002611d9190919063ffffffff16565b50905080915050919050565b6000610f0182604051806060016040528060298152602001612e9d602991396002611dc09092919063ffffffff16565b9050919050565b6000600a60009054906101000a900473ffffffffffffffffffffffffffffffffffffffff1673ffffffffffffffffffffffffffffffffffffffff163373ffffffffffffffffffffffffffffffffffffffff1614610fcd576040517f08c379a000000000000000000000000000000000000000000000000000000000815260040180806020018281038252600d8152602001807f4e6f7420616e206167656e74210000000000000000000000000000000000000081525060200191505060405180910390fd5b600082604051602001808273ffffffffffffffffffffffffffffffffffffffff1673ffffffffffffffffffffffffffffffffffffffff1660601b81526014019150506040516020818303038152906040528051906020012060001c9050611044838260405180602001604052806000815250611ddf565b80915050919050565b606060098054600181600116156101000203166002900480601f0160208091040260200160405190810160405280929190818152602001828054600181600116156101000203166002900480156110e55780601f106110ba576101008083540402835291602001916110e5565b820191906000526020600020905b8154815290600101906020018083116110c857829003601f168201915b5050505050905090565b60008073ffffffffffffffffffffffffffffffffffffffff168273ffffffffffffffffffffffffffffffffffffffff161415611176576040517f08c379a000000000000000000000000000000000000000000000000000000000815260040180806020018281038252602a815260200180612e73602a913960400191505060405180910390fd5b6111bd600160008473ffffffffffffffffffffffffffffffffffffffff1673ffffffffffffffffffffffffffffffffffffffff168152602001908152602001600020611e50565b9050919050565b606060078054600181600116156101000203166002900480601f01602080910402602001604051908101604052809291908181526020018280546001816001161561010002031660029004801561125c5780601f106112315761010080835404028352916020019161125c565b820191906000526020600020905b81548152906001019060200180831161123f57829003601f168201915b5050505050905090565b61126e611830565b73ffffffffffffffffffffffffffffffffffffffff168273ffffffffffffffffffffffffffffffffffffffff16141561130f576040517f08c379a00000000000000000000000000000000000000000000000000000000081526004018080602001828103825260198152602001807f4552433732313a20617070726f766520746f2063616c6c65720000000000000081525060200191505060405180910390fd5b806005600061131c611830565b73ffffffffffffffffffffffffffffffffffffffff1673ffffffffffffffffffffffffffffffffffffffff16815260200190815260200160002060008473ffffffffffffffffffffffffffffffffffffffff1673ffffffffffffffffffffffffffffffffffffffff16815260200190815260200160002060006101000a81548160ff0219169083151502179055508173ffffffffffffffffffffffffffffffffffffffff166113c9611830565b73ffffffffffffffffffffffffffffffffffffffff167f17307eab39ab6107e8899845ad3d59bd9653f200f220920489ca2b5937696c3183604051808215151515815260200191505060405180910390a35050565b61142f611429611830565b83611906565b611484576040517f08c379a0000000000000000000000000000000000000000000000000000000008152600401808060200182810382526031815260200180612f8d6031913960400191505060405180910390fd5b61149084848484611e65565b50505050565b60606114a182611813565b6114f6576040517f08c379a000000000000000000000000000000000000000000000000000000000815260040180806020018281038252602f815260200180612f3d602f913960400191505060405180910390fd5b6060600860008481526020019081526020016000208054600181600116156101000203166002900480601f01602080910402602001604051908101604052809291908181526020018280546001816001161561010002031660029004801561159f5780601f106115745761010080835404028352916020019161159f565b820191906000526020600020905b81548152906001019060200180831161158257829003601f168201915b505050505090506000600980546001816001161561010002031660029004905014156115ce578091505061177a565b6000815111156116a75760098160405160200180838054600181600116156101000203166002900480156116395780601f10611617576101008083540402835291820191611639565b820191906000526020600020905b815481529060010190602001808311611625575b505082805190602001908083835b6020831061166a5780518252602082019150602081019050602083039250611647565b6001836020036101000a0380198251168184511680821785525050505050509050019250505060405160208183030381529060405291505061177a565b60096116b284611ed7565b60405160200180838054600181600116156101000203166002900480156117105780601f106116ee576101008083540402835291820191611710565b820191906000526020600020905b8154815290600101906020018083116116fc575b505082805190602001908083835b60208310611741578051825260208201915060208101905060208303925061171e565b6001836020036101000a038019825116818451168082178552505050505050905001925050506040516020818303038152906040529150505b919050565b6000600560008473ffffffffffffffffffffffffffffffffffffffff1673ffffffffffffffffffffffffffffffffffffffff16815260200190815260200160002060008373ffffffffffffffffffffffffffffffffffffffff1673ffffffffffffffffffffffffffffffffffffffff16815260200190815260200160002060009054906101000a900460ff16905092915050565b600061182982600261201e90919063ffffffff16565b9050919050565b600033905090565b816004600083815260200190815260200160002060006101000a81548173ffffffffffffffffffffffffffffffffffffffff021916908373ffffffffffffffffffffffffffffffffffffffff160217905550808273ffffffffffffffffffffffffffffffffffffffff166118ab83610ed1565b73ffffffffffffffffffffffffffffffffffffffff167f8c5be1e5ebec7d5bd14f71427d1e84f3dd0314c0f7b2291e5b200ac8c7c3b92560405160405180910390a45050565b60006118ff82600001612038565b9050919050565b600061191182611813565b611966576040517f08c379a000000000000000000000000000000000000000000000000000000000815260040180806020018281038252602c815260200180612e0f602c913960400191505060405180910390fd5b600061197183610ed1565b90508073ffffffffffffffffffffffffffffffffffffffff168473ffffffffffffffffffffffffffffffffffffffff1614806119e057508373ffffffffffffffffffffffffffffffffffffffff166119c884610aac565b73ffffffffffffffffffffffffffffffffffffffff16145b806119f157506119f0818561177f565b5b91505092915050565b8273ffffffffffffffffffffffffffffffffffffffff16611a1a82610ed1565b73ffffffffffffffffffffffffffffffffffffffff1614611a86576040517f08c379a0000000000000000000000000000000000000000000000000000000008152600401808060200182810382526029815260200180612f146029913960400191505060405180910390fd5b600073ffffffffffffffffffffffffffffffffffffffff168273ffffffffffffffffffffffffffffffffffffffff161415611b0c576040517f08c379a0000000000000000000000000000000000000000000000000000000008152600401808060200182810382526024815260200180612deb6024913960400191505060405180910390fd5b611b17838383612049565b611b22600082611838565b611b7381600160008673ffffffffffffffffffffffffffffffffffffffff1673ffffffffffffffffffffffffffffffffffffffff16815260200190815260200160002061204e90919063ffffffff16565b50611bc581600160008573ffffffffffffffffffffffffffffffffffffffff1673ffffffffffffffffffffffffffffffffffffffff16815260200190815260200160002061206890919063ffffffff16565b50611bdc818360026120829092919063ffffffff16565b50808273ffffffffffffffffffffffffffffffffffffffff168473ffffffffffffffffffffffffffffffffffffffff167fddf252ad1be2c89b69c2b068fc378daa952ba7f163c4a11628f55a4df523b3ef60405160405180910390a4505050565b6000611c4c83600001836120b7565b60001c905092915050565b6000611c6282610ed1565b9050611c7081600084612049565b611c7b600083611838565b60006008600084815260200190815260200160002080546001816001161561010002031660029004905014611cca57600860008381526020019081526020016000206000611cc99190612d29565b5b611d1b82600160008473ffffffffffffffffffffffffffffffffffffffff1673ffffffffffffffffffffffffffffffffffffffff16815260200190815260200160002061204e90919063ffffffff16565b50611d3082600261213a90919063ffffffff16565b5081600073ffffffffffffffffffffffffffffffffffffffff168273ffffffffffffffffffffffffffffffffffffffff167fddf252ad1be2c89b69c2b068fc378daa952ba7f163c4a11628f55a4df523b3ef60405160405180910390a45050565b600080600080611da48660000186612154565b915091508160001c8160001c8090509350935050509250929050565b6000611dd3846000018460001b846121ed565b60001c90509392505050565b611de983836122e3565b611df660008484846124d7565b611e4b576040517f08c379a0000000000000000000000000000000000000000000000000000000008152600401808060200182810382526032815260200180612db96032913960400191505060405180910390fd5b505050565b6000611e5e8260000161271c565b9050919050565b611e708484846119fa565b611e7c848484846124d7565b611ed1576040517f08c379a0000000000000000000000000000000000000000000000000000000008152600401808060200182810382526032815260200180612db96032913960400191505060405180910390fd5b50505050565b60606000821415611f1f576040518060400160405280600181526020017f30000000000000000000000000000000000000000000000000000000000000008152509050612019565b600082905060005b60008214611f49578080600101915050600a8281611f4157fe5b049150611f27565b60608167ffffffffffffffff81118015611f6257600080fd5b506040519080825280601f01601f191660200182016040528015611f955781602001600182028036833780820191505090505b50905060006001830390508593505b6000841461201157600a8481611fb657fe5b0660300160f81b82828060019003935081518110611fd057fe5b60200101907effffffffffffffffffffffffffffffffffffffffffffffffffffffffffffff1916908160001a905350600a848161200957fe5b049350611fa4565b819450505050505b919050565b6000612030836000018360001b61272d565b905092915050565b600081600001805490509050919050565b505050565b6000612060836000018360001b612750565b905092915050565b600061207a836000018360001b612838565b905092915050565b60006120ae846000018460001b8473ffffffffffffffffffffffffffffffffffffffff1660001b6128a8565b90509392505050565b600081836000018054905011612118576040517f08c379a0000000000000000000000000000000000000000000000000000000008152600401808060200182810382526022815260200180612d976022913960400191505060405180910390fd5b82600001828154811061212757fe5b9060005260206000200154905092915050565b600061214c836000018360001b612984565b905092915050565b600080828460000180549050116121b6576040517f08c379a0000000000000000000000000000000000000000000000000000000008152600401808060200182810382526022815260200180612ec66022913960400191505060405180910390fd5b60008460000184815481106121c757fe5b906000526020600020906002020190508060000154816001015492509250509250929050565b600080846001016000858152602001908152602001600020549050600081141583906122b4576040517f08c379a00000000000000000000000000000000000000000000000000000000081526004018080602001828103825283818151815260200191508051906020019080838360005b8381101561227957808201518184015260208101905061225e565b50505050905090810190601f1680156122a65780820380516001836020036101000a031916815260200191505b509250505060405180910390fd5b508460000160018203815481106122c757fe5b9060005260206000209060020201600101549150509392505050565b600073ffffffffffffffffffffffffffffffffffffffff168273ffffffffffffffffffffffffffffffffffffffff161415612386576040517f08c379a00000000000000000000000000000000000000000000000000000000081526004018080602001828103825260208152602001807f4552433732313a206d696e7420746f20746865207a65726f206164647265737381525060200191505060405180910390fd5b61238f81611813565b15612402576040517f08c379a000000000000000000000000000000000000000000000000000000000815260040180806020018281038252601c8152602001807f4552433732313a20746f6b656e20616c7265616479206d696e7465640000000081525060200191505060405180910390fd5b61240e60008383612049565b61245f81600160008573ffffffffffffffffffffffffffffffffffffffff1673ffffffffffffffffffffffffffffffffffffffff16815260200190815260200160002061206890919063ffffffff16565b50612476818360026120829092919063ffffffff16565b50808273ffffffffffffffffffffffffffffffffffffffff16600073ffffffffffffffffffffffffffffffffffffffff167fddf252ad1be2c89b69c2b068fc378daa952ba7f163c4a11628f55a4df523b3ef60405160405180910390a45050565b60006124f88473ffffffffffffffffffffffffffffffffffffffff16612a9d565b6125055760019050612714565b606061269b63150b7a0260e01b61251a611830565b888787604051602401808573ffffffffffffffffffffffffffffffffffffffff1673ffffffffffffffffffffffffffffffffffffffff1681526020018473ffffffffffffffffffffffffffffffffffffffff1673ffffffffffffffffffffffffffffffffffffffff16815260200183815260200180602001828103825283818151815260200191508051906020019080838360005b838110156125ca5780820151818401526020810190506125af565b50505050905090810190601f1680156125f75780820380516001836020036101000a031916815260200191505b5095505050505050604051602081830303815290604052907bffffffffffffffffffffffffffffffffffffffffffffffffffffffff19166020820180517bffffffffffffffffffffffffffffffffffffffffffffffffffffffff8381831617835250505050604051806060016040528060328152602001612db9603291398773ffffffffffffffffffffffffffffffffffffffff16612ae89092919063ffffffff16565b905060008180602001905160208110156126b457600080fd5b8101908080519060200190929190505050905063150b7a0260e01b7bffffffffffffffffffffffffffffffffffffffffffffffffffffffff1916817bffffffffffffffffffffffffffffffffffffffffffffffffffffffff191614925050505b949350505050565b600081600001805490509050919050565b600080836001016000848152602001908152602001600020541415905092915050565b6000808360010160008481526020019081526020016000205490506000811461282c576000600182039050600060018660000180549050039050600086600001828154811061279b57fe5b90600052602060002001549050808760000184815481106127b857fe5b90600052602060002001819055506001830187600101600083815260200190815260200160002081905550866000018054806127f057fe5b60019003818190600052602060002001600090559055866001016000878152602001908152602001600020600090556001945050505050612832565b60009150505b92915050565b60006128448383612b00565b61289d5782600001829080600181540180825580915050600190039060005260206000200160009091909190915055826000018054905083600101600084815260200190815260200160002081905550600190506128a2565b600090505b92915050565b600080846001016000858152602001908152602001600020549050600081141561294f5784600001604051806040016040528086815260200185815250908060018154018082558091505060019003906000526020600020906002020160009091909190915060008201518160000155602082015181600101555050846000018054905085600101600086815260200190815260200160002081905550600191505061297d565b8285600001600183038154811061296257fe5b90600052602060002090600202016001018190555060009150505b9392505050565b60008083600101600084815260200190815260200160002054905060008114612a9157600060018203905060006001866000018054905003905060008660000182815481106129cf57fe5b90600052602060002090600202019050808760000184815481106129ef57fe5b9060005260206000209060020201600082015481600001556001820154816001015590505060018301876001016000836000015481526020019081526020016000208190555086600001805480612a4257fe5b6001900381819060005260206000209060020201600080820160009055600182016000905550509055866001016000878152602001908152602001600020600090556001945050505050612a97565b60009150505b92915050565b60008060007fc5d2460186f7233c927e7db2dcc703c0e500b653ca82273b7bfad8045d85a47060001b9050833f9150808214158015612adf57506000801b8214155b92505050919050565b6060612af78484600085612b23565b90509392505050565b600080836001016000848152602001908152602001600020541415905092915050565b6060612b2e85612a9d565b612ba0576040517f08c379a000000000000000000000000000000000000000000000000000000000815260040180806020018281038252601d8152602001807f416464726573733a2063616c6c20746f206e6f6e2d636f6e747261637400000081525060200191505060405180910390fd5b600060608673ffffffffffffffffffffffffffffffffffffffff1685876040518082805190602001908083835b60208310612bf05780518252602082019150602081019050602083039250612bcd565b6001836020036101000a03801982511681845116808217855250505050505090500191505060006040518083038185875af1925050503d8060008114612c52576040519150601f19603f3d011682016040523d82523d6000602084013e612c57565b606091505b50915091508115612c6c578092505050612d21565b600081511115612c7f5780518082602001fd5b836040517f08c379a00000000000000000000000000000000000000000000000000000000081526004018080602001828103825283818151815260200191508051906020019080838360005b83811015612ce6578082015181840152602081019050612ccb565b50505050905090810190601f168015612d135780820380516001836020036101000a031916815260200191505b509250505060405180910390fd5b949350505050565b50805460018160011615610100020316600290046000825580601f10612d4f5750612d6e565b601f016020900490600052602060002090810190612d6d9190612d71565b5b50565b612d9391905b80821115612d8f576000816000905550600101612d77565b5090565b9056fe456e756d657261626c655365743a20696e646578206f7574206f6620626f756e64734552433732313a207472616e7366657220746f206e6f6e20455243373231526563656976657220696d706c656d656e7465724552433732313a207472616e7366657220746f20746865207a65726f20616464726573734552433732313a206f70657261746f7220717565727920666f72206e6f6e6578697374656e7420746f6b656e4552433732313a20617070726f76652063616c6c6572206973206e6f74206f776e6572206e6f7220617070726f76656420666f7220616c6c4552433732313a2062616c616e636520717565727920666f7220746865207a65726f20616464726573734552433732313a206f776e657220717565727920666f72206e6f6e6578697374656e7420746f6b656e456e756d657261626c654d61703a20696e646578206f7574206f6620626f756e64734552433732313a20617070726f76656420717565727920666f72206e6f6e6578697374656e7420746f6b656e4552433732313a207472616e73666572206f6620746f6b656e2074686174206973206e6f74206f776e4552433732314d657461646174613a2055524920717565727920666f72206e6f6e6578697374656e7420746f6b656e4552433732313a20617070726f76616c20746f2063757272656e74206f776e65724552433732313a207472616e736665722063616c6c6572206973206e6f74206f776e6572206e6f7220617070726f766564a26469706673582212204d7a2ff497190d853eaebaf2f760f8c1a8046c6b4515f39f1775c8e35413951064736f6c63430006080033",
  "immutableReferences": {},
  "source": "pragma solidity ^0.6.8;\r\n\r\nimport './DecentramallToken.sol';\r\nimport './Administration.sol';\r\n\r\ncontract EstateAgent is Administration{\r\n    //Max limit of tokens to be minted\r\n    uint256 private _currentLimit;\r\n\r\n    //Base price to start\r\n    uint256 private _basePrice;\r\n\r\n    DecentramallToken public token;\r\n\r\n    event TokenCreated(address token);\r\n    event SetToken(DecentramallToken newContract);\r\n    event SetLimit(uint256 limit);\r\n    event Withdraw(address to, uint256 amount);\r\n    event BuyToken(address buyer, uint256 price, uint256 tokenId);\r\n    event SellToken(address seller, uint256 price, uint256 tokenId);\r\n    event Received(address sender, uint256 value);\r\n\r\n    constructor(uint256 currentLimit, uint256 basePrice) public{\r\n        token = new DecentramallToken(address(this));\r\n\r\n        _currentLimit = currentLimit;\r\n        _basePrice = basePrice;\r\n        emit TokenCreated(address(token));\r\n    }\r\n\r\n    receive() external payable {\r\n        emit Received(msg.sender, msg.value);\r\n    }\r\n\r\n    /**\r\n     * @dev Withdraw funds from this contract\r\n     * @param to address to withdraw to\r\n     * @param amount the amount to withdraw\r\n     * @notice TODO: Make it multisig so not one admin can withdraw all\r\n     */\r\n    function withdraw(address payable to, uint256 amount) external onlyAdmin{\r\n        require(balance() > 0 && amount < balance(), \"Impossible\");\r\n        to.transfer(amount);\r\n        emit Withdraw(to, amount);\r\n    }\r\n\r\n    /**\r\n     * @dev Set token address\r\n     * @param _newContract the address of the newly deployed SPACE token\r\n     * In case if token address ever changes, we can set this contract to point there\r\n     */\r\n    function setToken(DecentramallToken _newContract) external onlyAdmin {\r\n        token = _newContract;\r\n        emit SetToken(_newContract);\r\n    }\r\n\r\n    /**\r\n     * @dev Change the currentLimit variable (Max supply)\r\n     * @param limit the current token minting limit\r\n     * Only admin(s) can change this variable\r\n     */\r\n    function setLimit(uint256 limit) public onlyAdmin{\r\n        _currentLimit = limit;\r\n        emit SetLimit(limit);\r\n    }\r\n\r\n    /**\r\n     * @dev Get price of next token\r\n     * @param x the x value in the bonding curve graph\r\n     * Assuming current bonding curve function of y = x^2 + basePrice\r\n     * @return price at the specific position in bonding curve\r\n     */\r\n    function price(uint256 x) public view returns(uint256) {\r\n        return ((x ** 2) + _basePrice);\r\n    }\r\n\r\n    /**\r\n     * @dev Buy a unique token\r\n     *\r\n     * One address can only hold one token as the token ID is based on a hashed version of the buyer's address\r\n     *\r\n     * The price of the token is based on a bonding curve function\r\n     */\r\n    function buy() public payable {\r\n        require(token.totalSupply() < _currentLimit, \"Max supply reached!\");\r\n        uint256 supplyBefore = token.totalSupply();\r\n        uint256 quotedPrice = price(supplyBefore + 1);\r\n\r\n        require(msg.value >= (quotedPrice * 1 finney), \"Not enough funds to purchase token!\");\r\n        uint256 tokenId = token.mint(msg.sender);\r\n\r\n        require (token.totalSupply() > supplyBefore, \"Token did not mint!\");\r\n        emit BuyToken(msg.sender, quotedPrice, tokenId);\r\n    }\r\n\r\n    /**\r\n     * @dev Sell a unique token\r\n     *\r\n     * Sell and burn the token that has been minted\r\n     * @param tokenId the ID of the token being sold\r\n     * - The price of the token is based on a bonding curve function\r\n     * - Will check if token is legitimate\r\n     */\r\n    function sell(uint256 tokenId) public {\r\n        require(token.verifyLegitimacy(msg.sender, tokenId) == true, \"Fake token!\");\r\n        uint256 supplyBefore = token.totalSupply();\r\n        uint256 quotedPrice = price(supplyBefore);\r\n\r\n        require(quotedPrice <= balance(), \"Price can't be higher than balance\");\r\n        token.burn(tokenId);\r\n        \r\n        require(token.totalSupply() < supplyBefore, \"Token did not burn\");\r\n        address payable seller = msg.sender;\r\n        seller.transfer(quotedPrice);\r\n        emit SellToken(msg.sender, quotedPrice, tokenId);\r\n    }\r\n\r\n    /**\r\n     * @dev Get currentLimit\r\n     * @return current minting limit\r\n     * Only admin(s) can add new admin\r\n     */\r\n    function limit() public view returns(uint256){\r\n        return(_currentLimit);\r\n    }\r\n\r\n    /**\r\n     * @dev Get balance\r\n     * @return balance in EstateAgent contract\r\n     */\r\n    function balance() public view returns(uint256){\r\n        address payable self = address(this);\r\n        return self.balance;\r\n    }\r\n}",
  "sourcePath": "C:\\Eason\\HackFS\\truffle-testing\\contracts\\EstateAgent.sol",
  "compiler": {
    "name": "solc",
    "version": "0.6.8+commit.0bbfe453.Emscripten.clang"
  },
  "schemaVersion": "3.2.2",
  "updatedAt": "2020-07-23T06:56:45.800Z",
  "networkType": "ethereum",
  "devdoc": {
    "methods": {
      "addAdmin(address)": {
        "details": "Add a new admin",
        "params": {
          "newAdmin": "the address of the admin to add Only admin(s) can add new admin"
        }
      },
      "balance()": {
        "details": "Get balance",
        "returns": {
          "_0": "balance in EstateAgent contract"
        }
      },
      "buy()": {
        "details": "Buy a unique token      * One address can only hold one token as the token ID is based on a hashed version of the buyer's address      * The price of the token is based on a bonding curve function"
      },
      "limit()": {
        "details": "Get currentLimit",
        "returns": {
          "_0": "current minting limit Only admin(s) can add new admin"
        }
      },
      "price(uint256)": {
        "details": "Get price of next token",
        "params": {
          "x": "the x value in the bonding curve graph Assuming current bonding curve function of y = x^2 + basePrice"
        },
        "returns": {
          "_0": "price at the specific position in bonding curve"
        }
      },
      "removeAdmin(address)": {
        "details": "Remove admin",
        "params": {
          "oldAdmin": "the address of the admin to remove Self explanatory"
        }
      },
      "sell(uint256)": {
        "details": "Sell a unique token      * Sell and burn the token that has been minted",
        "params": {
          "tokenId": "the ID of the token being sold - The price of the token is based on a bonding curve function - Will check if token is legitimate"
        }
      },
      "setLimit(uint256)": {
        "details": "Change the currentLimit variable (Max supply)",
        "params": {
          "limit": "the current token minting limit Only admin(s) can change this variable"
        }
      },
      "setToken(address)": {
        "details": "Set token address",
        "params": {
          "_newContract": "the address of the newly deployed SPACE token In case if token address ever changes, we can set this contract to point there"
        }
      },
      "verifyAdmin(address)": {
        "details": "Verify Admin",
        "params": {
          "admin": "the address of the admin to check Self explanatory"
        }
      },
      "withdraw(address,uint256)": {
        "details": "Withdraw funds from this contract",
        "params": {
          "amount": "the amount to withdraw",
          "to": "address to withdraw to"
        }
      }
    }
  },
  "userdoc": {
    "methods": {
      "withdraw(address,uint256)": {
        "notice": "TODO: Make it multisig so not one admin can withdraw all"
      }
    }
  }
}