{
  "contractName": "RentalAgent",
  "abi": [
    {
      "inputs": [
        {
          "internalType": "contract DecentramallToken",
          "name": "_token",
          "type": "address"
        },
        {
          "internalType": "contract EstateAgent",
          "name": "_estateAgent",
          "type": "address"
        }
      ],
      "stateMutability": "nonpayable",
      "type": "constructor"
    },
    {
      "anonymous": false,
      "inputs": [
        {
          "indexed": false,
          "internalType": "address",
          "name": "newAdmin",
          "type": "address"
        }
      ],
      "name": "AddAdmin",
      "type": "event"
    },
    {
      "anonymous": false,
      "inputs": [
        {
          "indexed": false,
          "internalType": "address",
          "name": "from",
          "type": "address"
        },
        {
          "indexed": false,
          "internalType": "uint256",
          "name": "tokenId",
          "type": "uint256"
        }
      ],
      "name": "Deposit",
      "type": "event"
    },
    {
      "anonymous": false,
      "inputs": [
        {
          "indexed": false,
          "internalType": "address",
          "name": "oldAdmin",
          "type": "address"
        }
      ],
      "name": "RemoveAdmin",
      "type": "event"
    },
    {
      "anonymous": false,
      "inputs": [
        {
          "indexed": false,
          "internalType": "address",
          "name": "renter",
          "type": "address"
        },
        {
          "indexed": false,
          "internalType": "uint256",
          "name": "tokenId",
          "type": "uint256"
        }
      ],
      "name": "Rented",
      "type": "event"
    },
    {
      "anonymous": false,
      "inputs": [
        {
          "indexed": false,
          "internalType": "address",
          "name": "_newContract",
          "type": "address"
        }
      ],
      "name": "SetAgent",
      "type": "event"
    },
    {
      "anonymous": false,
      "inputs": [
        {
          "indexed": false,
          "internalType": "address",
          "name": "_newContract",
          "type": "address"
        }
      ],
      "name": "SetToken",
      "type": "event"
    },
    {
      "anonymous": false,
      "inputs": [
        {
          "indexed": false,
          "internalType": "address",
          "name": "to",
          "type": "address"
        },
        {
          "indexed": false,
          "internalType": "uint256",
          "name": "tokenId",
          "type": "uint256"
        }
      ],
      "name": "Withdraw",
      "type": "event"
    },
    {
      "inputs": [
        {
          "internalType": "address",
          "name": "newAdmin",
          "type": "address"
        }
      ],
      "name": "addAdmin",
      "outputs": [],
      "stateMutability": "nonpayable",
      "type": "function"
    },
    {
      "inputs": [
        {
          "internalType": "address",
          "name": "",
          "type": "address"
        }
      ],
      "name": "adminByAddress",
      "outputs": [
        {
          "internalType": "bool",
          "name": "",
          "type": "bool"
        }
      ],
      "stateMutability": "view",
      "type": "function",
      "constant": true
    },
    {
      "inputs": [],
      "name": "estateAgent",
      "outputs": [
        {
          "internalType": "contract EstateAgent",
          "name": "",
          "type": "address"
        }
      ],
      "stateMutability": "view",
      "type": "function",
      "constant": true
    },
    {
      "inputs": [
        {
          "internalType": "address",
          "name": "oldAdmin",
          "type": "address"
        }
      ],
      "name": "removeAdmin",
      "outputs": [],
      "stateMutability": "nonpayable",
      "type": "function"
    },
    {
      "inputs": [
        {
          "internalType": "uint256",
          "name": "",
          "type": "uint256"
        }
      ],
      "name": "spaceInfo",
      "outputs": [
        {
          "internalType": "address",
          "name": "rightfulOwner",
          "type": "address"
        },
        {
          "internalType": "address",
          "name": "rentedTo",
          "type": "address"
        },
        {
          "internalType": "uint256",
          "name": "rentalEarned",
          "type": "uint256"
        },
        {
          "internalType": "uint256",
          "name": "expiryBlock",
          "type": "uint256"
        }
      ],
      "stateMutability": "view",
      "type": "function",
      "constant": true
    },
    {
      "inputs": [],
      "name": "token",
      "outputs": [
        {
          "internalType": "contract DecentramallToken",
          "name": "",
          "type": "address"
        }
      ],
      "stateMutability": "view",
      "type": "function",
      "constant": true
    },
    {
      "inputs": [
        {
          "internalType": "address",
          "name": "admin",
          "type": "address"
        }
      ],
      "name": "verifyAdmin",
      "outputs": [
        {
          "internalType": "bool",
          "name": "",
          "type": "bool"
        }
      ],
      "stateMutability": "view",
      "type": "function",
      "constant": true
    },
    {
      "inputs": [
        {
          "internalType": "contract DecentramallToken",
          "name": "spaceToken",
          "type": "address"
        }
      ],
      "name": "setToken",
      "outputs": [],
      "stateMutability": "nonpayable",
      "type": "function"
    },
    {
      "inputs": [
        {
          "internalType": "contract EstateAgent",
          "name": "estateContract",
          "type": "address"
        }
      ],
      "name": "setAgent",
      "outputs": [],
      "stateMutability": "nonpayable",
      "type": "function"
    },
    {
      "inputs": [
        {
          "internalType": "uint256",
          "name": "tokenId",
          "type": "uint256"
        }
      ],
      "name": "deposit",
      "outputs": [],
      "stateMutability": "nonpayable",
      "type": "function"
    },
    {
      "inputs": [
        {
          "internalType": "uint256",
          "name": "tokenId",
          "type": "uint256"
        }
      ],
      "name": "withdrawSpace",
      "outputs": [],
      "stateMutability": "nonpayable",
      "type": "function"
    },
    {
      "inputs": [
        {
          "internalType": "uint256",
          "name": "tokenId",
          "type": "uint256"
        }
      ],
      "name": "rent",
      "outputs": [],
      "stateMutability": "payable",
      "type": "function",
      "payable": true
    },
    {
      "inputs": [
        {
          "internalType": "uint256",
          "name": "tokenId",
          "type": "uint256"
        }
      ],
      "name": "claimRent",
      "outputs": [],
      "stateMutability": "nonpayable",
      "type": "function"
    },
    {
      "inputs": [
        {
          "internalType": "uint256",
          "name": "tokenId",
          "type": "uint256"
        }
      ],
      "name": "checkDelegatedOwner",
      "outputs": [
        {
          "internalType": "address",
          "name": "",
          "type": "address"
        }
      ],
      "stateMutability": "view",
      "type": "function",
      "constant": true
    }
  ],
  "bytecode": "0x608060405234801561001057600080fd5b50604051611b2f380380611b2f8339818101604052604081101561003357600080fd5b81019080805190602001909291908051906020019092919050505060016000803373ffffffffffffffffffffffffffffffffffffffff1673ffffffffffffffffffffffffffffffffffffffff16815260200190815260200160002060006101000a81548160ff0219169083151502179055507fad6de4452a631e641cb59902236607946ce9272b9b981f2f80e8d129cb9084ba33604051808273ffffffffffffffffffffffffffffffffffffffff1673ffffffffffffffffffffffffffffffffffffffff16815260200191505060405180910390a181600260006101000a81548173ffffffffffffffffffffffffffffffffffffffff021916908373ffffffffffffffffffffffffffffffffffffffff16021790555080600360006101000a81548173ffffffffffffffffffffffffffffffffffffffff021916908373ffffffffffffffffffffffffffffffffffffffff16021790555050506119948061019b6000396000f3fe6080604052600436106100dd5760003560e01c8063704802751161007f578063b6b55f2511610059578063b6b55f251461041d578063bcf685ed14610458578063eb4215e8146104a9578063fc0c546a14610565576100dd565b806370480275146103235780637456be7d14610374578063772518fa146103a2576100dd565b806323c9b8c4116100bb57806323c9b8c4146101ed578063390b4f7e1461022857806347d440e114610291578063608b039a146102cc576100dd565b806303f9f214146100e2578063144fa6d71461014b5780631785f53c1461019c575b600080fd5b3480156100ee57600080fd5b506101316004803603602081101561010557600080fd5b81019080803573ffffffffffffffffffffffffffffffffffffffff1690602001909291905050506105bc565b604051808215151515815260200191505060405180910390f35b34801561015757600080fd5b5061019a6004803603602081101561016e57600080fd5b81019080803573ffffffffffffffffffffffffffffffffffffffff1690602001909291905050506105dc565b005b3480156101a857600080fd5b506101eb600480360360208110156101bf57600080fd5b81019080803573ffffffffffffffffffffffffffffffffffffffff169060200190929190505050610748565b005b3480156101f957600080fd5b506102266004803603602081101561021057600080fd5b81019080803590602001909291905050506108ca565b005b34801561023457600080fd5b506102776004803603602081101561024b57600080fd5b81019080803573ffffffffffffffffffffffffffffffffffffffff169060200190929190505050610aa1565b604051808215151515815260200191505060405180910390f35b34801561029d57600080fd5b506102ca600480360360208110156102b457600080fd5b8101908080359060200190929190505050610af6565b005b3480156102d857600080fd5b506102e1610cef565b604051808273ffffffffffffffffffffffffffffffffffffffff1673ffffffffffffffffffffffffffffffffffffffff16815260200191505060405180910390f35b34801561032f57600080fd5b506103726004803603602081101561034657600080fd5b81019080803573ffffffffffffffffffffffffffffffffffffffff169060200190929190505050610d15565b005b6103a06004803603602081101561038a57600080fd5b8101908080359060200190929190505050610e97565b005b3480156103ae57600080fd5b506103db600480360360208110156103c557600080fd5b810190808035906020019092919050505061119f565b604051808273ffffffffffffffffffffffffffffffffffffffff1673ffffffffffffffffffffffffffffffffffffffff16815260200191505060405180910390f35b34801561042957600080fd5b506104566004803603602081101561044057600080fd5b810190808035906020019092919050505061132b565b005b34801561046457600080fd5b506104a76004803603602081101561047b57600080fd5b81019080803573ffffffffffffffffffffffffffffffffffffffff16906020019092919050505061175c565b005b3480156104b557600080fd5b506104e2600480360360208110156104cc57600080fd5b81019080803590602001909291905050506118c8565b604051808573ffffffffffffffffffffffffffffffffffffffff1673ffffffffffffffffffffffffffffffffffffffff1681526020018473ffffffffffffffffffffffffffffffffffffffff1673ffffffffffffffffffffffffffffffffffffffff16815260200183815260200182815260200194505050505060405180910390f35b34801561057157600080fd5b5061057a611938565b604051808273ffffffffffffffffffffffffffffffffffffffff1673ffffffffffffffffffffffffffffffffffffffff16815260200191505060405180910390f35b60006020528060005260406000206000915054906101000a900460ff1681565b600115156000803373ffffffffffffffffffffffffffffffffffffffff1673ffffffffffffffffffffffffffffffffffffffff16815260200190815260200160002060009054906101000a900460ff161515146106a1576040517f08c379a000000000000000000000000000000000000000000000000000000000815260040180806020018281038252600d8152602001807f4e6f7420616e2061646d696e210000000000000000000000000000000000000081525060200191505060405180910390fd5b80600260006101000a81548173ffffffffffffffffffffffffffffffffffffffff021916908373ffffffffffffffffffffffffffffffffffffffff1602179055507fefc1fd16ea80a922086ee4e995739d59b025c1bcea6d1f67855747480c83214b81604051808273ffffffffffffffffffffffffffffffffffffffff1673ffffffffffffffffffffffffffffffffffffffff16815260200191505060405180910390a150565b600115156000803373ffffffffffffffffffffffffffffffffffffffff1673ffffffffffffffffffffffffffffffffffffffff16815260200190815260200160002060009054906101000a900460ff1615151461080d576040517f08c379a000000000000000000000000000000000000000000000000000000000815260040180806020018281038252600d8152602001807f4e6f7420616e2061646d696e210000000000000000000000000000000000000081525060200191505060405180910390fd5b60008060008373ffffffffffffffffffffffffffffffffffffffff1673ffffffffffffffffffffffffffffffffffffffff16815260200190815260200160002060006101000a81548160ff0219169083151502179055507f753f40ca3312b2408759a67875b367955e7baa221daf08aa3d643d96202ac12b81604051808273ffffffffffffffffffffffffffffffffffffffff1673ffffffffffffffffffffffffffffffffffffffff16815260200191505060405180910390a150565b3373ffffffffffffffffffffffffffffffffffffffff166001600083815260200190815260200160002060000160009054906101000a900473ffffffffffffffffffffffffffffffffffffffff1673ffffffffffffffffffffffffffffffffffffffff16146109a1576040517f08c379a000000000000000000000000000000000000000000000000000000000815260040180806020018281038252600a8152602001807f4e6f74206f776e6572210000000000000000000000000000000000000000000081525060200191505060405180910390fd5b60006001600083815260200190815260200160002060020154905080471015610a32576040517f08c379a00000000000000000000000000000000000000000000000000000000081526004018080602001828103825260188152602001807f4e6f7420656e6f7567682066756e647320746f2070617921000000000000000081525060200191505060405180910390fd5b8060016000848152602001908152602001600020600201600082825403925050819055503373ffffffffffffffffffffffffffffffffffffffff166108fc829081150290604051600060405180830381858888f19350505050158015610a9c573d6000803e3d6000fd5b505050565b60008060008373ffffffffffffffffffffffffffffffffffffffff1673ffffffffffffffffffffffffffffffffffffffff16815260200190815260200160002060009054906101000a900460ff169050919050565b436001600083815260200190815260200160002060030154108015610b7c57503373ffffffffffffffffffffffffffffffffffffffff166001600083815260200190815260200160002060000160009054906101000a900473ffffffffffffffffffffffffffffffffffffffff1673ffffffffffffffffffffffffffffffffffffffff16145b610bee576040517f08c379a000000000000000000000000000000000000000000000000000000000815260040180806020018281038252601c8152602001807f546f6b656e2069732072656e746564202f204e6f74206f776e6572210000000081525060200191505060405180910390fd5b610bf7816108ca565b600260009054906101000a900473ffffffffffffffffffffffffffffffffffffffff1673ffffffffffffffffffffffffffffffffffffffff166342842e0e3033846040518463ffffffff1660e01b8152600401808473ffffffffffffffffffffffffffffffffffffffff1673ffffffffffffffffffffffffffffffffffffffff1681526020018373ffffffffffffffffffffffffffffffffffffffff1673ffffffffffffffffffffffffffffffffffffffff1681526020018281526020019350505050600060405180830381600087803b158015610cd457600080fd5b505af1158015610ce8573d6000803e3d6000fd5b5050505050565b600360009054906101000a900473ffffffffffffffffffffffffffffffffffffffff1681565b600115156000803373ffffffffffffffffffffffffffffffffffffffff1673ffffffffffffffffffffffffffffffffffffffff16815260200190815260200160002060009054906101000a900460ff16151514610dda576040517f08c379a000000000000000000000000000000000000000000000000000000000815260040180806020018281038252600d8152602001807f4e6f7420616e2061646d696e210000000000000000000000000000000000000081525060200191505060405180910390fd5b60016000808373ffffffffffffffffffffffffffffffffffffffff1673ffffffffffffffffffffffffffffffffffffffff16815260200190815260200160002060006101000a81548160ff0219169083151502179055507fad6de4452a631e641cb59902236607946ce9272b9b981f2f80e8d129cb9084ba81604051808273ffffffffffffffffffffffffffffffffffffffff1673ffffffffffffffffffffffffffffffffffffffff16815260200191505060405180910390a150565b43600160008381526020019081526020016000206003015410610f22576040517f08c379a00000000000000000000000000000000000000000000000000000000081526004018080602001828103825260188152602001807f546f6b656e20697320616c72656164792072656e74656421000000000000000081525060200191505060405180910390fd5b6000600a600360009054906101000a900473ffffffffffffffffffffffffffffffffffffffff1673ffffffffffffffffffffffffffffffffffffffff166326a49e376001600260009054906101000a900473ffffffffffffffffffffffffffffffffffffffff1673ffffffffffffffffffffffffffffffffffffffff166318160ddd6040518163ffffffff1660e01b815260040160206040518083038186803b158015610fce57600080fd5b505afa158015610fe2573d6000803e3d6000fd5b505050506040513d6020811015610ff857600080fd5b8101908080519060200190929190505050016040518263ffffffff1660e01b81526004018082815260200191505060206040518083038186803b15801561103e57600080fd5b505afa158015611052573d6000803e3d6000fd5b505050506040513d602081101561106857600080fd5b81019080805190602001909291905050508161108057fe5b04905066038d7ea4c680008102341015611102576040517f08c379a00000000000000000000000000000000000000000000000000000000081526004018080602001828103825260118152602001807f4e6f7420656e6f7567682066756e64732100000000000000000000000000000081525060200191505060405180910390fd5b336001600084815260200190815260200160002060010160006101000a81548173ffffffffffffffffffffffffffffffffffffffff021916908373ffffffffffffffffffffffffffffffffffffffff16021790555080600160008481526020019081526020016000206002016000828254019250508190555062225f1b430160016000848152602001908152602001600020600301819055505050565b6000436001600084815260200190815260200160002060030154106111fc576001600083815260200190815260200160002060010160009054906101000a900473ffffffffffffffffffffffffffffffffffffffff169050611326565b6000600260009054906101000a900473ffffffffffffffffffffffffffffffffffffffff1673ffffffffffffffffffffffffffffffffffffffff16636352211e846040518263ffffffff1660e01b81526004018082815260200191505060206040518083038186803b15801561127157600080fd5b505afa158015611285573d6000803e3d6000fd5b505050506040513d602081101561129b57600080fd5b810190808051906020019092919050505090503073ffffffffffffffffffffffffffffffffffffffff168173ffffffffffffffffffffffffffffffffffffffff161415611321576001600084815260200190815260200160002060000160009054906101000a900473ffffffffffffffffffffffffffffffffffffffff16915050611326565b809150505b919050565b60011515600260009054906101000a900473ffffffffffffffffffffffffffffffffffffffff1673ffffffffffffffffffffffffffffffffffffffff166320d9049f33846040518363ffffffff1660e01b8152600401808373ffffffffffffffffffffffffffffffffffffffff1673ffffffffffffffffffffffffffffffffffffffff1681526020018281526020019250505060206040518083038186803b1580156113d657600080fd5b505afa1580156113ea573d6000803e3d6000fd5b505050506040513d602081101561140057600080fd5b8101908080519060200190929190505050151514611486576040517f08c379a000000000000000000000000000000000000000000000000000000000815260040180806020018281038252600b8152602001807f46616b6520746f6b656e2100000000000000000000000000000000000000000081525060200191505060405180910390fd5b600260009054906101000a900473ffffffffffffffffffffffffffffffffffffffff1673ffffffffffffffffffffffffffffffffffffffff166323b872dd3330846040518463ffffffff1660e01b8152600401808473ffffffffffffffffffffffffffffffffffffffff1673ffffffffffffffffffffffffffffffffffffffff1681526020018373ffffffffffffffffffffffffffffffffffffffff1673ffffffffffffffffffffffffffffffffffffffff1681526020018281526020019350505050600060405180830381600087803b15801561156357600080fd5b505af1158015611577573d6000803e3d6000fd5b50505050600073ffffffffffffffffffffffffffffffffffffffff166001600083815260200190815260200160002060000160009054906101000a900473ffffffffffffffffffffffffffffffffffffffff1673ffffffffffffffffffffffffffffffffffffffff1614156116ee5760405180608001604052803373ffffffffffffffffffffffffffffffffffffffff1681526020013373ffffffffffffffffffffffffffffffffffffffff1681526020016000815260200160008152506001600083815260200190815260200160002060008201518160000160006101000a81548173ffffffffffffffffffffffffffffffffffffffff021916908373ffffffffffffffffffffffffffffffffffffffff16021790555060208201518160010160006101000a81548173ffffffffffffffffffffffffffffffffffffffff021916908373ffffffffffffffffffffffffffffffffffffffff16021790555060408201518160020155606082015181600301559050505b7fe1fffcc4923d04b559f4d29a8bfc6cda04eb5b0d3c460751c2402c5c5cc9109c3382604051808373ffffffffffffffffffffffffffffffffffffffff1673ffffffffffffffffffffffffffffffffffffffff1681526020018281526020019250505060405180910390a150565b600115156000803373ffffffffffffffffffffffffffffffffffffffff1673ffffffffffffffffffffffffffffffffffffffff16815260200190815260200160002060009054906101000a900460ff16151514611821576040517f08c379a000000000000000000000000000000000000000000000000000000000815260040180806020018281038252600d8152602001807f4e6f7420616e2061646d696e210000000000000000000000000000000000000081525060200191505060405180910390fd5b80600360006101000a81548173ffffffffffffffffffffffffffffffffffffffff021916908373ffffffffffffffffffffffffffffffffffffffff1602179055507fefa39b3c24c1ef322521fd78438717296ea28511a0a7a59098aacddeaf13e40381604051808273ffffffffffffffffffffffffffffffffffffffff1673ffffffffffffffffffffffffffffffffffffffff16815260200191505060405180910390a150565b60016020528060005260406000206000915090508060000160009054906101000a900473ffffffffffffffffffffffffffffffffffffffff16908060010160009054906101000a900473ffffffffffffffffffffffffffffffffffffffff16908060020154908060030154905084565b600260009054906101000a900473ffffffffffffffffffffffffffffffffffffffff168156fea26469706673582212203bbc66de57ae1d86bab60a22860cb713170f30590cd65aeecb37b31fb06bdb5364736f6c63430006080033",
  "immutableReferences": {},
  "source": "// SPDX-License-Identifier: MIT\r\npragma solidity ^0.6.8;\r\n\r\nimport './EstateAgent.sol';\r\nimport './DecentramallToken.sol';\r\n\r\ncontract RentalAgent is Administration{\r\n    struct SpaceDetails {\r\n        address rightfulOwner;\r\n        address rentedTo;\r\n        uint256 rentalEarned;\r\n        uint256 expiryBlock;\r\n    }\r\n\r\n    mapping(uint256 => SpaceDetails) public spaceInfo;\r\n\r\n    DecentramallToken public token;\r\n    EstateAgent public estateAgent;\r\n\r\n    event SetToken(address _newContract);\r\n    event SetAgent(address _newContract);\r\n    event Deposit(address from, uint256 tokenId);\r\n    event Rented(address renter, uint256 tokenId);\r\n    event Withdraw(address to, uint256 tokenId);\r\n\r\n    constructor(DecentramallToken _token, EstateAgent _estateAgent) public {\r\n        token = _token;\r\n        estateAgent = _estateAgent;\r\n    }\r\n\r\n    /**\r\n     * @dev Set token address\r\n     * @param spaceToken the address of the newly deployed SPACE token\r\n     * In case if token address ever changes, we can set this contract to point there\r\n     */\r\n    function setToken(DecentramallToken spaceToken) external onlyAdmin {\r\n        token = spaceToken;\r\n        emit SetToken(address(spaceToken));\r\n    }\r\n\r\n    /**\r\n     * @dev Set EstateAgent address\r\n     * @param estateContract the address of the EstateAgent\r\n     */\r\n    function setAgent(EstateAgent estateContract) external onlyAdmin {\r\n        estateAgent = estateContract;\r\n        emit SetAgent(address(estateContract));\r\n    }\r\n\r\n    /**\r\n    * @dev Deposit the SPACE token to this contract\r\n    * @param tokenId ID of the token to check\r\n    * @notice need to write an approve method\r\n    **/\r\n    function deposit(uint256 tokenId) public {\r\n        require(token.verifyLegitimacy(msg.sender, tokenId) == true, \"Fake token!\");\r\n        token.transferFrom(msg.sender, address(this), tokenId);\r\n\r\n        //Register the rightful owner if first time user\r\n        if(spaceInfo[tokenId].rightfulOwner == address(0)){\r\n            spaceInfo[tokenId] = SpaceDetails(msg.sender, msg.sender, 0, 0);\r\n        }\r\n        emit Deposit(msg.sender, tokenId);\r\n    }\r\n\r\n    /**\r\n    * @dev Withdraw the SPACE token from this contract\r\n    * @param tokenId ID of the token to check\r\n    * @notice this will withdraw both the rental earned and the SPACE token\r\n    **/\r\n    function withdrawSpace(uint256 tokenId) public {\r\n        require(\r\n            spaceInfo[tokenId].expiryBlock < block.number &&\r\n            spaceInfo[tokenId].rightfulOwner == msg.sender, \"Token is rented / Not owner!\"\r\n        );\r\n        claimRent(tokenId);\r\n        token.safeTransferFrom(address(this), msg.sender, tokenId);\r\n    }\r\n\r\n    /**\r\n    * @dev Allows users to rent a SPACE token of choice\r\n    * @param tokenId ID of the token to check\r\n    **/\r\n    function rent(uint256 tokenId) public payable{\r\n        require(spaceInfo[tokenId].expiryBlock < block.number, \"Token is already rented!\");\r\n        //To rent, it costs 1/10 to buy new\r\n        uint256 rentPrice = (estateAgent.price(token.totalSupply() + 1 ) / 10);\r\n        require(msg.value >= (rentPrice * 1 finney), \"Not enough funds!\");\r\n\r\n        spaceInfo[tokenId].rentedTo = msg.sender;\r\n        spaceInfo[tokenId].rentalEarned += rentPrice;\r\n        spaceInfo[tokenId].expiryBlock = block.number + 2252571; //roughly 1 year\r\n    }\r\n\r\n    /**\r\n    * @dev Claim the rent earned\r\n    * @param tokenId id of the SPACE token\r\n    * @notice Owner can claim rent right on Day 1 of renting\r\n    **/\r\n    function claimRent(uint256 tokenId) public {\r\n        require(spaceInfo[tokenId].rightfulOwner == msg.sender, \"Not owner!\");\r\n        uint256 toClaim = spaceInfo[tokenId].rentalEarned;\r\n        require(address(this).balance >= toClaim, \"Not enough funds to pay!\");\r\n        spaceInfo[tokenId].rentalEarned -= toClaim;\r\n        msg.sender.transfer(toClaim);\r\n    }\r\n\r\n    /**\r\n    * @dev Check who has the rights to use the token currently\r\n    * @param tokenId ID of the token to check\r\n    **/\r\n    function checkDelegatedOwner(uint256 tokenId) public view returns (address) {\r\n        //Check if the token is being rented\r\n        if(spaceInfo[tokenId].expiryBlock >= block.number){\r\n            //Since rented, the current owner (have the right to use the SPACE) is the renter\r\n            return spaceInfo[tokenId].rentedTo;\r\n        } else {\r\n            //Token is not rented, it either exists in this contract, or is held by the owner\r\n            address currentOwner = token.ownerOf(tokenId);\r\n            if(currentOwner == address(this)){\r\n                //Token is here! Time to check spaceInfo\r\n                return spaceInfo[tokenId].rightfulOwner;\r\n            } else {\r\n                return currentOwner;\r\n            }\r\n        }\r\n    }\r\n}",
  "sourcePath": "C:/Eason/HackFS/decentramall/smart-contracts/contracts/RentalAgent.sol",
  "compiler": {
    "name": "solc",
    "version": "0.6.8+commit.0bbfe453.Emscripten.clang"
  },
  "schemaVersion": "3.2.2",
  "updatedAt": "2020-07-23T10:27:47.426Z",
  "networkType": "ethereum",
  "devdoc": {
    "methods": {
      "addAdmin(address)": {
        "details": "Add a new admin",
        "params": {
          "newAdmin": "the address of the admin to add Only admin(s) can add new admin"
        }
      },
      "checkDelegatedOwner(uint256)": {
        "details": "Check who has the rights to use the token currently",
        "params": {
          "tokenId": "ID of the token to check*"
        }
      },
      "claimRent(uint256)": {
        "details": "Claim the rent earned",
        "params": {
          "tokenId": "id of the SPACE token"
        }
      },
      "deposit(uint256)": {
        "details": "Deposit the SPACE token to this contract",
        "params": {
          "tokenId": "ID of the token to check"
        }
      },
      "removeAdmin(address)": {
        "details": "Remove admin",
        "params": {
          "oldAdmin": "the address of the admin to remove Self explanatory"
        }
      },
      "rent(uint256)": {
        "details": "Allows users to rent a SPACE token of choice",
        "params": {
          "tokenId": "ID of the token to check*"
        }
      },
      "setAgent(address)": {
        "details": "Set EstateAgent address",
        "params": {
          "estateContract": "the address of the EstateAgent"
        }
      },
      "setToken(address)": {
        "details": "Set token address",
        "params": {
          "spaceToken": "the address of the newly deployed SPACE token In case if token address ever changes, we can set this contract to point there"
        }
      },
      "verifyAdmin(address)": {
        "details": "Verify Admin",
        "params": {
          "admin": "the address of the admin to check Self explanatory"
        }
      },
      "withdrawSpace(uint256)": {
        "details": "Withdraw the SPACE token from this contract",
        "params": {
          "tokenId": "ID of the token to check"
        }
      }
    }
  },
  "userdoc": {
    "methods": {
      "claimRent(uint256)": {
        "notice": "Owner can claim rent right on Day 1 of renting*"
      },
      "deposit(uint256)": {
        "notice": "need to write an approve method*"
      },
      "withdrawSpace(uint256)": {
        "notice": "this will withdraw both the rental earned and the SPACE token*"
      }
    }
  }
}